{
  "_format": "hh-sol-artifact-1",
  "contractName": "WillManager",
  "sourceName": "contracts/WillManager.sol",
  "abi": [
    {
      "inputs": [
        {
          "internalType": "contract WillStorage",
          "name": "_willStorage",
          "type": "address"
        }
      ],
      "stateMutability": "nonpayable",
      "type": "constructor"
    },
    {
      "anonymous": false,
      "inputs": [
        {
          "indexed": false,
          "internalType": "bytes32",
          "name": "willId",
          "type": "bytes32"
        }
      ],
      "name": "willAdded",
      "type": "event"
    },
    {
      "inputs": [
        {
          "internalType": "string",
          "name": "willBody",
          "type": "string"
        }
      ],
      "name": "addWill",
      "outputs": [],
      "stateMutability": "payable",
      "type": "function"
    },
    {
      "inputs": [
        {
          "internalType": "bytes32",
          "name": "willId",
          "type": "bytes32"
        }
      ],
      "name": "getWill",
      "outputs": [
        {
          "internalType": "string",
          "name": "",
          "type": "string"
        }
      ],
      "stateMutability": "view",
      "type": "function"
    },
    {
      "inputs": [],
      "name": "withdraw",
      "outputs": [],
      "stateMutability": "nonpayable",
      "type": "function"
    }
  ],
  "bytecode": "0x6080604052600060025534801561001557600080fd5b50604051610a63380380610a6383398181016040528101906100379190610133565b80600160006101000a81548173ffffffffffffffffffffffffffffffffffffffff021916908373ffffffffffffffffffffffffffffffffffffffff160217905550336000806101000a81548173ffffffffffffffffffffffffffffffffffffffff021916908373ffffffffffffffffffffffffffffffffffffffff16021790555050610160565b600080fd5b600073ffffffffffffffffffffffffffffffffffffffff82169050919050565b60006100ee826100c3565b9050919050565b6000610100826100e3565b9050919050565b610110816100f5565b811461011b57600080fd5b50565b60008151905061012d81610107565b92915050565b600060208284031215610149576101486100be565b5b60006101578482850161011e565b91505092915050565b6108f48061016f6000396000f3fe6080604052600436106100345760003560e01c806329042591146100395780633ccfd60b14610076578063efd8c98b1461008d575b600080fd5b34801561004557600080fd5b50610060600480360381019061005b91906103dc565b6100a9565b60405161006d9190610499565b60405180910390f35b34801561008257600080fd5b5061008b610153565b005b6100a760048036038101906100a291906105f0565b610281565b005b6060600160009054906101000a900473ffffffffffffffffffffffffffffffffffffffff1673ffffffffffffffffffffffffffffffffffffffff1663986e791a836040518263ffffffff1660e01b81526004016101069190610648565b600060405180830381865afa158015610123573d6000803e3d6000fd5b505050506040513d6000823e3d601f19601f8201168201806040525081019061014c91906106d3565b9050919050565b60008054906101000a900473ffffffffffffffffffffffffffffffffffffffff1673ffffffffffffffffffffffffffffffffffffffff163373ffffffffffffffffffffffffffffffffffffffff16146101ab57600080fd5b600047905060008060009054906101000a900473ffffffffffffffffffffffffffffffffffffffff1673ffffffffffffffffffffffffffffffffffffffff16826040516101f79061074d565b60006040518083038185875af1925050503d8060008114610234576040519150601f19603f3d011682016040523d82523d6000602084013e610239565b606091505b505090508061027d576040517f08c379a0000000000000000000000000000000000000000000000000000000008152600401610274906107ae565b60405180910390fd5b5050565b6000600254826040516020016102989291906107e7565b604051602081830303815290604052805190602001209050600160009054906101000a900473ffffffffffffffffffffffffffffffffffffffff1673ffffffffffffffffffffffffffffffffffffffff16636e89955082846040518363ffffffff1660e01b815260040161030d929190610817565b600060405180830381600087803b15801561032757600080fd5b505af115801561033b573d6000803e3d6000fd5b505050506002600081548092919061035290610876565b91905055507ff8f159b8d06302829882a2042e7757a16b2aa44aab0e0eb026b4d424c96e914b816040516103869190610648565b60405180910390a15050565b6000604051905090565b600080fd5b600080fd5b6000819050919050565b6103b9816103a6565b81146103c457600080fd5b50565b6000813590506103d6816103b0565b92915050565b6000602082840312156103f2576103f161039c565b5b6000610400848285016103c7565b91505092915050565b600081519050919050565b600082825260208201905092915050565b60005b83811015610443578082015181840152602081019050610428565b60008484015250505050565b6000601f19601f8301169050919050565b600061046b82610409565b6104758185610414565b9350610485818560208601610425565b61048e8161044f565b840191505092915050565b600060208201905081810360008301526104b38184610460565b905092915050565b600080fd5b600080fd5b7f4e487b7100000000000000000000000000000000000000000000000000000000600052604160045260246000fd5b6104fd8261044f565b810181811067ffffffffffffffff8211171561051c5761051b6104c5565b5b80604052505050565b600061052f610392565b905061053b82826104f4565b919050565b600067ffffffffffffffff82111561055b5761055a6104c5565b5b6105648261044f565b9050602081019050919050565b82818337600083830152505050565b600061059361058e84610540565b610525565b9050828152602081018484840111156105af576105ae6104c0565b5b6105ba848285610571565b509392505050565b600082601f8301126105d7576105d66104bb565b5b81356105e7848260208601610580565b91505092915050565b6000602082840312156106065761060561039c565b5b600082013567ffffffffffffffff811115610624576106236103a1565b5b610630848285016105c2565b91505092915050565b610642816103a6565b82525050565b600060208201905061065d6000830184610639565b92915050565b600061067661067184610540565b610525565b905082815260208101848484011115610692576106916104c0565b5b61069d848285610425565b509392505050565b600082601f8301126106ba576106b96104bb565b5b81516106ca848260208601610663565b91505092915050565b6000602082840312156106e9576106e861039c565b5b600082015167ffffffffffffffff811115610707576107066103a1565b5b610713848285016106a5565b91505092915050565b600081905092915050565b50565b600061073760008361071c565b915061074282610727565b600082019050919050565b60006107588261072a565b9150819050919050565b7f436f756c64206e6f742077697468647261770000000000000000000000000000600082015250565b6000610798601283610414565b91506107a382610762565b602082019050919050565b600060208201905081810360008301526107c78161078b565b9050919050565b6000819050919050565b6107e1816107ce565b82525050565b60006040820190506107fc60008301856107d8565b818103602083015261080e8184610460565b90509392505050565b600060408201905061082c6000830185610639565b818103602083015261083e8184610460565b90509392505050565b7f4e487b7100000000000000000000000000000000000000000000000000000000600052601160045260246000fd5b6000610881826107ce565b91507fffffffffffffffffffffffffffffffffffffffffffffffffffffffffffffffff82036108b3576108b2610847565b5b60018201905091905056fea2646970667358221220ca592a911bd2469268fff2b5b85629e7ce888e1f933634ae1cb530e76d867f7864736f6c63430008180033",
  "linkReferences": {},
  "deployedLinkReferences": {}
}